S00F00004C45445F43484B2E737265630B
S11300000C942A000C9434000C9434000C943400A6
S11300100C9434000C9434000C9434000C9434008C
S11300200C9434000C9434000C9434000C9434007C
S11300300C9434000C9434000C9434000C9434006C
S11300400C9434000C9434000C9434000C9434005C
S11300500C94340011241FBECFE5D4E0DEBFCDBF25
S11300600E9436000C944F000C9400008FEF87BB65
S11300709AEA85E598BB2FEF31EE44E021503040F9
S11300804040E1F700C0000088BB2FEF31EE44E0B0
S1130090215030404040E1F700C00000EBCFF8941D
S10500A0FFCF8C
S9030000FC
