:100000000C942A000C9447000C9447000C94470071
:100010000C9447000C9447000C9447000C94470044
:100020000C9447000C9447000C9447000C94470034
:100030000C9447000C9447000C9447000C94470024
:100040000C9447000C9447000C9447000C94470014
:100050000C94470011241FBECFE5D4E0DEBFCDBF16
:1000600011E0A0E6B0E0ECEAF2E002C005900D92EB
:10007000A630B107D9F721E0A6E0B1E001C01D929A
:10008000A630B207E1F70E94AD000C9454010C9425
:1000900000001BB810BC88E089B988E18AB986E8FD
:1000A00080BD08955D9BFECF8CB90895CF93DF93FB
:1000B000EC018881882331F021960E9452008991B9
:1000C0008111FBCF2FEF81EE94E0215080409040D2
:1000D000E1F700C00000DF91CF9108950F931F93C7
:1000E000CF93DF93C82F19E2819F112D1124129510
:1000F0001F700CE9010390011124C9018C0F911D9F
:100100006AE070E00E942C01D62F80E3810F0E94EC
:10011000520080E38D0F0E945200C05D8C2F109F13
:10012000800D1124DD0F9D2F990F990FD90F8D1B75
:100130000E945200DF91CF911F910F91089590E698
:1001400097B997B1892B87B9369A8FE99FE00197C4
:10015000F1F700C0000085B108958FEF87BB8FE7EE
:1001600088BB0E94490086E886B92FEF33ED80E313
:10017000215030408040E1F700C0000080E690E070
:100180000E9456009FEF2BE732E99150204030400B
:10019000E1F700C000008EE690E00E9456008FEF6D
:1001A00093E224EF815090402040E1F700C000002E
:1001B0003FEF83E294EF315080409040E1F700C080
:1001C00000002FEF33E284EF215030408040E1F710
:1001D00000C0000080E00E949F00C82F8FE890E0E0
:1001E0000E9456009FEF2BE732E9915020403040AB
:1001F000E1F700C000008BEB90E00E9456008FEF0B
:1002000091EE24E0815090402040E1F700C00000D2
:100210008BEC90E00E9456008C2F0E946E008CE8C0
:1002200090E00E9456003FEF81EE94E03150804014
:100230009040E1F700C0000088EF90E00E94560077
:100240002FEF33E284EF90E0215030408040904027
:10025000D9F700C00000BECF97FB072E16F400941C
:1002600007D077FD09D00E94400107FC05D03EF47D
:10027000909581959F4F0895709561957F4F089552
:10028000AA1BBB1B51E107C0AA1FBB1FA617B707BC
:1002900010F0A61BB70B881F991F5A95A9F78095D8
:0C02A0009095BC01CD010895F894FFCFAB
:1002AC0041542B43574D4F44453D330D0A004154A7
:1002BC002B43574A41503D2253534944222C227917
:1002CC006F757270617373776F7264220D0A0041DF
:1002DC00542B43495053544152543D2254435022C1
:1002EC002C226170692E7468696E67737065616B1E
:1002FC002E636F6D222C38300D0A0041542B43496C
:10030C005053454E443D35310D0A00474554202F7E
:10031C007570646174653F6170695F6B65793D4DA3
:10032C0036444330443332514B4D543043334326DF
:10033C006669656C64313D0041542B434950434C14
:06034C004F53450D0A00AD
:00000001FF
