S011000052656C61792B4144432E7372656323
S11300000C942A000C943C000C943C000C943C008E
S11300100C943C000C943C000C943C000C943C006C
S11300200C943C000C943C000C943C000C943C005C
S11300300C943C000C943C000C943C000C943C004C
S11300400C943C000C943C000C943C000C943C003C
S11300500C943C0011241FBECFE5D4E0DEBFCDBF1D
S113006020E0A0E6B0E001C01D92A036B207E1F79F
S11300700E948A000C94D4000C9400001BB810BC9D
S113008088E089B988E18AB986E880BD08955D9BD6
S1130090FECF8CB908950F931F93CF93DF93C82F8E
S11300A019E2819F112D112412951F700CE901038F
S11300B090011124C9018C0F911D6AE070E00E9427
S11300C0AC00D62F80E3810F0E94470080E38D0FA0
S11300D00E944700C05D8C2F109F800D1124DD0FFE
S11300E09D2F990F990FD90F8D1B0E944700DF9107
S11300F0CF911F910F91089590E697B997B1892BED
S113010087B9369A8FE99FE00197F1F700C00000A4
S113011085B1089586E886B90E943E008FEF81BBC1
S11301208CE087BB88BBDFEF80E00E947C00C82F97
S11301300E944B00C43B10F012BA01C0D2BB8AE04B
S11301400E9447002FEF81EE94E0215080409040C0
S1130150E1F700C00000E8CF97FB072E16F40094E7
S113016007D077FD09D00E94C00007FC05D03EF4FB
S1130170909581959F4F0895709561957F4F08954F
S1130180AA1BBB1B51E107C0AA1FBB1FA617B707B9
S113019010F0A61BB70B881F991F5A95A9F78095D5
S10F01A09095BC01CD010895F894FFCFA8
S9030000FC
